:020000020000FC
:040000000C949400C8
:04002C000C943400FC
:100068002F922FB62F920F931F938F939F93F79AE8
:100078009F918F911F910F912F902FBE2F901895C0
:1000880000E204B9002E10E115B9089500E00093CC
:10009800800002E00093890001E70093880002E0F5
:1000A80000936F0000911600009316000CE0009377
:1000B800810008950F93AA24BB2401E18894EE1CC3
:1000C800FF1C0A9511F40F910895AA1CBB1CAC18CB
:1000D800BD08B7FE04C0AC0CBD1C8894F0CF0894D2
:1000E800EECF0895F798009101010A950093010158
:1000F80009F401C0089505E000930101F19901C0D8
:100108000AC01C9908C0F2990895F69BF69AF29ACB
:100118000895F19A08951C9BFCCFF198F2980895E0
:10012800F8940E9444000E944A00F79805E0009362
:1001380001017894F79B0C949E000E947600F69932
:100148000E94A900F6980C949E0005B1002505B9F7
:02015800089508
:00000001FF
