:020000020000FC
:040000000C94560105
:04002C000C943400FC
:100068002F922FB62F920F931F938F939F93F79AE8
:100078009F918F911F910F912F902FBE2F901895C0
:1000880000E204B9002E10E115B9089502E00093CA
:10009800C00008E00093C10006E00093C20000E140
:1000A8000093C40000270093C500089500E0009362
:1000B800800002E00093890001E70093880002E0D5
:1000C80000936F0000911600009316000CE0009357
:1000D800810008950F93AA24BB2401E18894EE1CA3
:1000E800FF1C0A9511F40F910895AA1CBB1CAC18AB
:1000F800BD08B7FE04C0AC0CBD1C8894F0CF0894B2
:10010800EECFF798009101010A950093010109F4D7
:1001180001C0089505E000930101F19906C01C9BF8
:1001280007C008C0F198F69A08951C9B0895FACF65
:10013800F19A0895F199F198089510910201139593
:10014800109302012BE0121721F410E01093020122
:100158009BC01091020121E0121709F424C022E08B
:10016800121709F42BC023E0121709F432C024E057
:10017800121709F439C025E0121709F440C026E027
:10018800121709F447C027E0121709F44EC028E0F7
:10019800121709F455C029E0121709F45CC02AE0C7
:1001A800121709F463C031E3309309013AE0309340
:1001B8000A01F29A30E030932501089532E3309332
:1001C80009013AE030930A01F29A30E030932501B0
:1001D800089533E3309309013AE030930A01F29A23
:1001E80030E030932501089534E3309309013AE073
:1001F80030930A01F29A30E030932501089535E3EF
:10020800309309013AE030930A01F29A30E03093D2
:100218002501089536E3309309013AE030930A0145
:10022800F29A30E030932501089537E330930901BD
:100238003AE030930A01F29A30E0309325010895AC
:1002480038E3309309013AE030930A01F29A30E03A
:1002580030932501089539E3309309013AE030934A
:100268000A01F29A30E030932501089531E3309382
:10027800090130E330930A013AE030930B01F29A16
:1002880030E030932501089530E3309309013AE0D6
:1002980030930A0130E030930B01F29A30E030934A
:1002A80025010895F8940E9444000E944A000E9483
:1002B8005A00F79805E00093010100E0009302015D
:1002C8000DE41FE424E430E30093050110930601D4
:1002D80020930701109308013093090100E000936F
:1002E8000A0100930B0100930C017894F79B0C947E
:1002F8007A010E948500F6990E94A100F698F29B67
:100308000C947A010091C00005FF0C947A010660F4
:100318000093C0001091250120E0121719F40091F4
:1003280005012AC021E0121719F40091060124C022
:1003380022E0121719F4009107011EC023E01217DA
:1003480019F40091080118C024E0121719F400915B
:10035800090112C025E0121719F400910A010CC016
:1003680026E0121719F400910B0106C027E01217B6
:1003780019F400910C0100C00093C6001395109366
:1003880025012AE0021709F00C947A01F2980C94DE
:020398007A01E8
:00000001FF
